{
  "contractName": "Reputation",
  "abi": [
    {
      "anonymous": false,
      "inputs": [
        {
          "indexed": true,
          "internalType": "address",
          "name": "from",
          "type": "address"
        },
        {
          "indexed": true,
          "internalType": "address",
          "name": "to",
          "type": "address"
        },
        {
          "indexed": false,
          "internalType": "string",
          "name": "skill",
          "type": "string"
        },
        {
          "indexed": false,
          "internalType": "string",
          "name": "details",
          "type": "string"
        },
        {
          "indexed": false,
          "internalType": "uint256",
          "name": "timestamp",
          "type": "uint256"
        }
      ],
      "name": "Attested",
      "type": "event"
    },
    {
      "inputs": [
        {
          "internalType": "uint256",
          "name": "",
          "type": "uint256"
        }
      ],
      "name": "attestations",
      "outputs": [
        {
          "internalType": "address",
          "name": "from",
          "type": "address"
        },
        {
          "internalType": "address",
          "name": "to",
          "type": "address"
        },
        {
          "internalType": "string",
          "name": "skill",
          "type": "string"
        },
        {
          "internalType": "string",
          "name": "details",
          "type": "string"
        },
        {
          "internalType": "uint256",
          "name": "timestamp",
          "type": "uint256"
        }
      ],
      "stateMutability": "view",
      "type": "function"
    },
    {
      "inputs": [
        {
          "internalType": "address",
          "name": "_to",
          "type": "address"
        },
        {
          "internalType": "string",
          "name": "_skill",
          "type": "string"
        },
        {
          "internalType": "string",
          "name": "_details",
          "type": "string"
        }
      ],
      "name": "attest",
      "outputs": [],
      "stateMutability": "nonpayable",
      "type": "function"
    },
    {
      "inputs": [],
      "name": "getAttestations",
      "outputs": [
        {
          "components": [
            {
              "internalType": "address",
              "name": "from",
              "type": "address"
            },
            {
              "internalType": "address",
              "name": "to",
              "type": "address"
            },
            {
              "internalType": "string",
              "name": "skill",
              "type": "string"
            },
            {
              "internalType": "string",
              "name": "details",
              "type": "string"
            },
            {
              "internalType": "uint256",
              "name": "timestamp",
              "type": "uint256"
            }
          ],
          "internalType": "struct Reputation.Attestation[]",
          "name": "",
          "type": "tuple[]"
        }
      ],
      "stateMutability": "view",
      "type": "function"
    }
  ],
  "bytecode": "0x608060405234801561000f575f80fd5b50610e948061001d5f395ff3fe608060405234801561000f575f80fd5b506004361061003f575f3560e01c806301daf26b146100435780634b0245d614610077578063a9294f2e14610095575b5f80fd5b61005d60048036038101906100589190610657565b6100b1565b60405161006e95949392919061075a565b60405180910390f35b61007f61023b565b60405161008c9190610954565b60405180910390f35b6100af60048036038101906100aa9190610aca565b610469565b005b5f81815481106100bf575f80fd5b905f5260205f2090600502015f91509050805f015f9054906101000a900473ffffffffffffffffffffffffffffffffffffffff1690806001015f9054906101000a900473ffffffffffffffffffffffffffffffffffffffff169080600201805461012890610b7f565b80601f016020809104026020016040519081016040528092919081815260200182805461015490610b7f565b801561019f5780601f106101765761010080835404028352916020019161019f565b820191905f5260205f20905b81548152906001019060200180831161018257829003601f168201915b5050505050908060030180546101b490610b7f565b80601f01602080910402602001604051908101604052809291908181526020018280546101e090610b7f565b801561022b5780601f106102025761010080835404028352916020019161022b565b820191905f5260205f20905b81548152906001019060200180831161020e57829003601f168201915b5050505050908060040154905085565b60605f805480602002602001604051908101604052809291908181526020015f905b82821015610460578382905f5260205f2090600502016040518060a00160405290815f82015f9054906101000a900473ffffffffffffffffffffffffffffffffffffffff1673ffffffffffffffffffffffffffffffffffffffff1673ffffffffffffffffffffffffffffffffffffffff168152602001600182015f9054906101000a900473ffffffffffffffffffffffffffffffffffffffff1673ffffffffffffffffffffffffffffffffffffffff1673ffffffffffffffffffffffffffffffffffffffff16815260200160028201805461033790610b7f565b80601f016020809104026020016040519081016040528092919081815260200182805461036390610b7f565b80156103ae5780601f10610385576101008083540402835291602001916103ae565b820191905f5260205f20905b81548152906001019060200180831161039157829003601f168201915b505050505081526020016003820180546103c790610b7f565b80601f01602080910402602001604051908101604052809291908181526020018280546103f390610b7f565b801561043e5780601f106104155761010080835404028352916020019161043e565b820191905f5260205f20905b81548152906001019060200180831161042157829003601f168201915b505050505081526020016004820154815250508152602001906001019061025d565b50505050905090565b5f6040518060a001604052803373ffffffffffffffffffffffffffffffffffffffff1681526020018573ffffffffffffffffffffffffffffffffffffffff16815260200184815260200183815260200142815250908060018154018082558091505060019003905f5260205f2090600502015f909190919091505f820151815f015f6101000a81548173ffffffffffffffffffffffffffffffffffffffff021916908373ffffffffffffffffffffffffffffffffffffffff1602179055506020820151816001015f6101000a81548173ffffffffffffffffffffffffffffffffffffffff021916908373ffffffffffffffffffffffffffffffffffffffff16021790555060408201518160020190816105829190610d4c565b5060608201518160030190816105989190610d4c565b506080820151816004015550508273ffffffffffffffffffffffffffffffffffffffff163373ffffffffffffffffffffffffffffffffffffffff167fe748cf492ac912cd8994dc7aab405f23e848ef25171db837e99e37815201b99584844260405161060693929190610e1b565b60405180910390a3505050565b5f604051905090565b5f80fd5b5f80fd5b5f819050919050565b61063681610624565b8114610640575f80fd5b50565b5f813590506106518161062d565b92915050565b5f6020828403121561066c5761066b61061c565b5b5f61067984828501610643565b91505092915050565b5f73ffffffffffffffffffffffffffffffffffffffff82169050919050565b5f6106ab82610682565b9050919050565b6106bb816106a1565b82525050565b5f81519050919050565b5f82825260208201905092915050565b5f5b838110156106f85780820151818401526020810190506106dd565b5f8484015250505050565b5f601f19601f8301169050919050565b5f61071d826106c1565b61072781856106cb565b93506107378185602086016106db565b61074081610703565b840191505092915050565b61075481610624565b82525050565b5f60a08201905061076d5f8301886106b2565b61077a60208301876106b2565b818103604083015261078c8186610713565b905081810360608301526107a08185610713565b90506107af608083018461074b565b9695505050505050565b5f81519050919050565b5f82825260208201905092915050565b5f819050602082019050919050565b6107eb816106a1565b82525050565b5f82825260208201905092915050565b5f61080b826106c1565b61081581856107f1565b93506108258185602086016106db565b61082e81610703565b840191505092915050565b61084281610624565b82525050565b5f60a083015f83015161085d5f8601826107e2565b50602083015161087060208601826107e2565b50604083015184820360408601526108888282610801565b915050606083015184820360608601526108a28282610801565b91505060808301516108b76080860182610839565b508091505092915050565b5f6108cd8383610848565b905092915050565b5f602082019050919050565b5f6108eb826107b9565b6108f581856107c3565b935083602082028501610907856107d3565b805f5b85811015610942578484038952815161092385826108c2565b945061092e836108d5565b925060208a0199505060018101905061090a565b50829750879550505050505092915050565b5f6020820190508181035f83015261096c81846108e1565b905092915050565b61097d816106a1565b8114610987575f80fd5b50565b5f8135905061099881610974565b92915050565b5f80fd5b5f80fd5b7f4e487b71000000000000000000000000000000000000000000000000000000005f52604160045260245ffd5b6109dc82610703565b810181811067ffffffffffffffff821117156109fb576109fa6109a6565b5b80604052505050565b5f610a0d610613565b9050610a1982826109d3565b919050565b5f67ffffffffffffffff821115610a3857610a376109a6565b5b610a4182610703565b9050602081019050919050565b828183375f83830152505050565b5f610a6e610a6984610a1e565b610a04565b905082815260208101848484011115610a8a57610a896109a2565b5b610a95848285610a4e565b509392505050565b5f82601f830112610ab157610ab061099e565b5b8135610ac1848260208601610a5c565b91505092915050565b5f805f60608486031215610ae157610ae061061c565b5b5f610aee8682870161098a565b935050602084013567ffffffffffffffff811115610b0f57610b0e610620565b5b610b1b86828701610a9d565b925050604084013567ffffffffffffffff811115610b3c57610b3b610620565b5b610b4886828701610a9d565b9150509250925092565b7f4e487b71000000000000000000000000000000000000000000000000000000005f52602260045260245ffd5b5f6002820490506001821680610b9657607f821691505b602082108103610ba957610ba8610b52565b5b50919050565b5f819050815f5260205f209050919050565b5f6020601f8301049050919050565b5f82821b905092915050565b5f60088302610c0b7fffffffffffffffffffffffffffffffffffffffffffffffffffffffffffffffff82610bd0565b610c158683610bd0565b95508019841693508086168417925050509392505050565b5f819050919050565b5f610c50610c4b610c4684610624565b610c2d565b610624565b9050919050565b5f819050919050565b610c6983610c36565b610c7d610c7582610c57565b848454610bdc565b825550505050565b5f90565b610c91610c85565b610c9c818484610c60565b505050565b5b81811015610cbf57610cb45f82610c89565b600181019050610ca2565b5050565b601f821115610d0457610cd581610baf565b610cde84610bc1565b81016020851015610ced578190505b610d01610cf985610bc1565b830182610ca1565b50505b505050565b5f82821c905092915050565b5f610d245f1984600802610d09565b1980831691505092915050565b5f610d3c8383610d15565b9150826002028217905092915050565b610d55826106c1565b67ffffffffffffffff811115610d6e57610d6d6109a6565b5b610d788254610b7f565b610d83828285610cc3565b5f60209050601f831160018114610db4575f8415610da2578287015190505b610dac8582610d31565b865550610e13565b601f198416610dc286610baf565b5f5b82811015610de957848901518255600182019150602085019450602081019050610dc4565b86831015610e065784890151610e02601f891682610d15565b8355505b6001600288020188555050505b505050505050565b5f6060820190508181035f830152610e338186610713565b90508181036020830152610e478185610713565b9050610e56604083018461074b565b94935050505056fea26469706673582212203ad46c1c90afe367c768bf0e89a19ea1058c8a912a1d1c2dafcf800c3ceff73864736f6c63430008150033",
  "immutableReferences": {},
  "source": "// SPDX-License-Identifier: MIT\npragma solidity ^0.8.0;\n\ncontract Reputation {\n    struct Attestation {\n        address from;\n        address to;\n        string skill;\n        string details;\n        uint256 timestamp;\n    }\n\n    Attestation[] public attestations;\n\n    event Attested(address indexed from, address indexed to, string skill, string details, uint256 timestamp);\n\n    function attest(address _to, string memory _skill, string memory _details) public {\n        attestations.push(Attestation(msg.sender, _to, _skill, _details, block.timestamp));\n        emit Attested(msg.sender, _to, _skill, _details, block.timestamp);\n    }\n\n    function getAttestations() public view returns (Attestation[] memory) {\n        return attestations;\n    }\n}\n\n\n\n",
  "sourcePath": "/Users/gaurav.xo/dapp-reputation-system/contracts/Reputation.sol",
  "compiler": {
    "name": "solc",
    "version": "0.8.21+commit.d9974bed.Emscripten.clang"
  },
  "schemaVersion": "3.4.16",
  "updatedAt": "2024-07-07T06:07:06.698Z",
  "devdoc": {
    "kind": "dev",
    "methods": {},
    "version": 1
  },
  "userdoc": {
    "kind": "user",
    "methods": {},
    "version": 1
  }
}